:10000000E1EF03F00000000000EF00F0000000004E
:0A0010000000000000000000F3D71C
:10001C00240E0C6EB50E0D6E0D2EFED70C2EFCD7CD
:06002C00000000001200BC
:0A003200530E0D6E0D2EFED71200C6
:0C003C00000000000000000000001200A6
:100048000B840BAE2FEF00F0010E036E026A016AFB
:0A005800006A0A360232FF0E1200A1
:0E006200026A016A006A086A036A000E120050
:100070002FBE02D0819E01D0818E2FBC02D0819CE8
:1000800001D0818C2FBA02D0819A01D0818A2FB8F9
:1000900002D0819801D0818828B002D0848401D018
:1000A00084948480CBDF84902FB602D0819E01D0CF
:1000B000818E2FB402D0819C01D0818C2FB202D0CE
:1000C000819A01D0818A2FB002D0819801D0818895
:1000D00028B002D0848401D084948480AFDF8490DF
:0C00E00028A002D09BDF01D0A4DF12009A
:0800EC000AAE029E000E120094
:1000F4000B800BAE86EF00F0026A0AAEFF0E026EB2
:0C010400016E006E0A360232FF0E12007F
:0C01100028902EC02FF0ACDF28801200D9
:08011C000B6A0B86FF0E1200B6
:100124000134083609360450085E0550D8A0053C51
:10013400095E003601360F0E0C6E0134083609369E
:10014400045000A006D0085E0550D8A0053C095E06
:1001540005D008260550D8B0053C092600360136DE
:100164000C2EEBD700B006D0045008260550D8B0AA
:08017400053C09260000120001
:10017C000B820BAEC8EF00F00368026801680068E0
:08018C000A360232FF0E1200D8
:100194000C6A0E6A0250D8A4E3EF00F001C002F02A
:1001A40000C001F0006A0E860250D8A4E3EF00F00C
:1001B40001C002F0016A0E960E880250D8B4F5EF21
:1001C40000F00E50035ED8A4D8A0FAEF00F0D89047
:1001D40002BEFFEF00F0003601360236032EEAEFCE
:1001E40000F0FAEF00F0010E0C6E39DF02EF01F0BF
:1001F400020E0C6E27DF02EF01F0040E0C6E74DFAA
:020204001200E6
:0C020600240E0D6E0D2EFED7000012001D
:100212000900F5CFE6FF0006FBE10106F9E1120055
:100222000450000A12E10550000A0FE10650000ACC
:100232000CE10750000A09E1FF0E006EFF0E016E8D
:100242007F0E026EFF0E036EA4D0086A096A075081
:10025200D8B4BCEF01F00350D8B4C0EF01F00250A3
:1002620006180A6E028E068E0E6A02C008F001C0DF
:100272000CF000C00DF004500D5E0550D8A0053CF6
:100282000C5E0650D8A0063C085E086A0C6A0D6A2D
:10029200D8A053EF01F0D890023201320032083276
:1002A200010E0E6E0750035ED8A060EF01F07E0EC5
:1002B2000E240326D8B0C4EF01F066EF01F07E0EE3
:1002C2000E240326D8A0C8EF01F0180E0B6E0D36CF
:1002D2000C3608360036013602360E360450005E01
:1002E2000550D8A0053C015E0650D8A0063C025E2F
:1002F20006340E120EA081EF01F00D808CEF01F09A
:10030200045000260550D8B0053C01260650D8B04E
:10031200062802260D900B2E68EF01F0B2EF01F0D5
:10032200D8900036013602360E360450005E055073
:10033200D8A0053C015E0650D8A0063C025E0634F9
:100342000E10010B0D26D8B00C2AD8B4082AD8A456
:10035200B2EF01F008320C320D32032AD8B4C4EFE6
:1003620001F00AAE089E0850026E0C50016E0D504C
:10037200006ECAEF01F0010ED0DECAEF01F0020EEC
:100382006FDECAEF01F0040EF8DECAEF01F0080ECC
:040392005ADE12001D
:10039600969096949398939A939C939E8490849423
:1003A600819E819C819A819836DE35DE34DE818A93
:1003B6008188848040DE84902EDE84803CDE8490BA
:1003C6002ADE848038DE849026DE8198848033DEBF
:1003D600849021DE84802FDE8490819A818E8480B1
:1003E6002ADE849018DE819E8188848024DE8490B3
:1003F6008198848020DE84900EDE84801CDE8490CA
:100406008188848018DE849006DE8198848013DEDD
:100416008490818E818C818A818884800CDE849090
:06042600FADD288012003F
:10042C000FD0800E296E19D0C00E296E16D0940EE6
:10043C00296E13D0D40E296E10D0800E296E0DD0DB
:10044C002950010AEEE02950020AEEE02950030A75
:10045C00EEE02950040AEEE0F0D72A04006E295091
:10046C00002600C029F000C02FF0FCDD28902D6A7A
:10047C002D502B24E96E000E2C20EA6EEE520BE070
:10048C002D502B24E96E000E2C20EA6EEECF2EF0B0
:0A049C0039DE2D2AEDD7288012006A
:1004A6000450000A08E10550000A05E1FF0E006E3F
:1004B6007F0E016E57D00D6A096A086A0150001056
:1004C600D8B4000C015005180A6E0ABE0D1E0B6A40
:1004D60005AE05D0041E051E042AD8B4052A01AEB1
:1004E60005D0001E011E002AD8B4012A01500510AD
:1004F6000A6E0ABE10D013DE0BB020D00DAE000C73
:10050600001E011E002AD8B4012A081E091E082A48
:10051600D8B4092A000C05AE0DD001BE07D0015093
:10052600096E0050086E016A006AE8D7016A006A1F
:10053600002A000C011E001E0B2ADDD7082AD8B49B
:10054600092A0450085CD8A4D9D70550095CD8A458
:10055600D5D7096A086A002AD8B4012A01AECED7CF
:060566000000FF0C120072
:10056C00086A096A000E076203643BEF03F002504D
:10057C0006180A6E075003267E0ED8A0CCEF02F0A8
:10058C00035ED8B03FEF03F0D0EF02F0035ED8A0CB
:10059C0043EF03F0028E068E02C00EF001C00BF08A
:1005AC0000C00DF000500402F4CF0CF00150050215
:1005BC00F4CF00F0F3CF08F00402F3500C26F45003
:1005CC000822000E00220D500502F3500C26F450A8
:1005DC000822000E002202500402F3500826F450A8
:1005EC00002202500502016A000E0122F35000267F
:1005FC00F45001220D500602F3500826F45000224C
:10060C00026A000E012202220B500602F350002651
:10061C00F4500122000E02220E500602F350012665
:10062C00F450022202BE23EF03F0083600360136E6
:10063C0002360306D8B443EF03F036EF03F0D8804C
:10064C00800E08640030000E002201220222D8A085
:10065C0036EF03F0023201320032034A3FEF03F06F
:10066C000AAE029E000E45EF03F0010EF4DC45EFDE
:10067C0003F0020E7DDD45EF03F0040EDFDC12000B
:10068C000050086E0150006E016A026A036A0B6A20
:10069C000C6A960E036E0A6A00C001F008C000F0E6
:0806AC00086A026A71DD120008
:1006B4000B6A0350D8B4A0EF03F002500A6E028E06
:1006C4008E0E035E03AEA4EF03F0036C080E035C0E
:1006D400D8A07FEF03F0036E013602C001F0026A76
:1006E400080E035CD8A07FEF03F0036E0136016AA5
:1006F4000350D8A4D89089EF03F00350D8B489EFFD
:1007040003F0D89002320132032E83EF03F00BBCC6
:1007140001A096EF03F0D8A096EF03F0012AD8B415
:10072400022A02BEB3EF03F00AAEB8EF03F0021ED2
:10073400011E012AD8B4022AB8EF03F0026A016A42
:10074400B8EF03F00B800BAEBCEF03F0026A0AAE05
:10075400BCEF03F0FF0E026E016E0A360232BCEFEC
:1007640003F0010E0C6EC4DCBEEF03F0000E0C6E41
:10077400BEEF03F0FF0E0C6E0150006E0250016ECE
:02078400120061
:10078600C26AC00EC212C18CC18E29C000F00036EA
:10079600009000360090003600900050C212C280D1
:1007A6002FDDC284C2A401D0FDD7C4CF01F0006AF8
:0C07B600C3500012000E0112C29012008D
:1007C2004C0E156E4D0E166E200E176E330E186EF1
:1007D200350E196E1A6A140EC16EC26A946A956A4F
:1007E200936A966A846A806AF26AD4DD0C0E2F6E6E
:1007F2003EDC010E2F6E3BDC010E296E010E2A6ECD
:10080200150E2B6E000E2C6E10DE296ABBDF3DDF4B
:10081200000E046EC00E056E7F0E066E880E076E09
:10082200FFDC000E046E000E056E200E066E810EB9
:10083200076E9BDE00C024F001C025F002C026F046
:1008420003C027F0000E046E000E056E7A0E066ECF
:10085200880E076E8ADE00C024F001C025F002C0B7
:1008620026F003C027F025DF00C01BF001C01CF0FA
:10087200640E046E000E056E15DE0A0E046E000E86
:10088200056E10DE08C000F009C001F0300E002431
:100892001D6E0A0E046E000E056E1BC000F01CC019
:1008A20001F000DE0A0E046E000E056EFBDD08C0CC
:1008B20000F009C001F0300E00241E6E430E1F6EC0
:1008C200206A020E296E2A6A1D0E2B6E000E2C6EF5
:1008D200ACDD0D0E0B6EAF0E0C6EB60E0D6E0D2E48
:1008E200FED70C2EFCD70B2EFAD700008ED7FFD7DF
:020000040030CA
:0D000100220F0EFF0181FF0FC00FE00F4026
:00000001FF
