:10000000C1EF04F00000000000EF00F0000000006D
:0A0010000000000000000000F3D71C
:10001C00240E0C6EB50E0D6E0D2EFED70C2EFCD7CD
:06002C00000000001200BC
:0A003200530E0D6E0D2EFED71200C6
:0C003C00000000000000000000001200A6
:100048000B840BAE2FEF00F0010E036E026A016AFB
:0A005800006A0A360232FF0E1200A1
:080062000AAE029E000E12001E
:10006A0043BE02D0819E01D0818E43BC02D0819CC6
:10007A0001D0818C43BA02D0819A01D0818A43B8D7
:10008A0002D0819801D0818825B002D0848401D021
:10009A0084948480CEDF849043B602D0819E01D0BE
:1000AA00818E43B402D0819C01D0818C43B202D0AC
:1000BA00819A01D0818A43B002D0819801D0818887
:1000CA0025B002D0848401D084948480B2DF8490E5
:0C00DA0025A002D09EDF01D0A7DF12009D
:0E00E600026A016A006A086A036A000E1200CC
:1000F4000B820BAE84EF00F00368026801680068AD
:080104000A360232FF0E120060
:10010C000C6A0E6A0250D8A49FEF00F001C002F0F6
:10011C0000C001F0006A0E860250D8A49FEF00F0D8
:10012C0001C002F0016A0E960E880250D8B4B1EFED
:10013C0000F00E50035ED8A4D8A0B6EF00F0D89013
:10014C0002BEBBEF00F0003601360236032EA6EFDE
:10015C0000F0B6EF00F0010E0C6EBFDFBEEF00F04A
:10016C00020E0C6E6BDFBEEF00F0040E0C6E73DF34
:02017C0012006F
:10017E003FC004F040C005F004C002F005C003F01B
:10018E00044A052A41C000F042C001F0414A422A09
:10019E0000C0E9FF01C0EAFF02C0E1FF03C0E2FFB9
:1001AE00EECFE6FF02C0E9FF03C0EAFFEE5201E028
:0C01BE00E3D73FC000F040C001F0120089
:1001CA000A6A0350D8A40A800750D8A40A820A509F
:1001DA00D8B448EF01F0030AD8B401EF01F00AB02D
:1001EA00FCEF00F006AE46EF01F044EF01F002AE7C
:1001FA0044EF01F046EF01F00250800B0A6E029EB6
:10020A000650800B069E0A18D8B412EF01F00A5065
:10021A00D8B444EF01F046EF01F00750035CD8B4BC
:10022A001CEF01F0D8A038EF01F03EEF01F00650C4
:10023A00025CD8B426EF01F0D8A038EF01F03EEF07
:10024A0001F00550015CD8B430EF01F0D8A038EFC6
:10025A0001F03EEF01F00450005CD8B448EF01F021
:10026A00D8B03EEF01F00A52D8B446EF01F044EF9D
:10027A0001F00A52D8B444EF01F046EF01F0D880F9
:0E028A001200D8901200D880D8841200120002
:0C029800240E0D6E0D2EFED7000012008B
:1002A400086A080E0C6E003408360450085ED8B094
:0E02B40002D00826D89000360C2EF5D7120086
:1002C200086A096A000E07620364E6EF01F0025051
:1002D20006180A6E075003267E0ED8A077EF01F0AB
:1002E200035ED8B0EAEF01F07BEF01F0035ED8A025
:1002F200EEEF01F0028E068E02C00EF001C00BF08E
:1003020000C00DF000500402F4CF0CF001500502C1
:10031200F4CF00F0F3CF08F00402F3500C26F450AF
:100322000822000E00220D500502F3500C26F45054
:100332000822000E002202500402F3500826F45054
:10034200002202500502016A000E0122F35000262B
:10035200F45001220D500602F3500826F4500022F8
:10036200026A000E012202220B500602F3500026FE
:10037200F4500122000E02220E500602F350012612
:10038200F450022202BECEEF01F0083600360136EA
:1003920002360306D8B4EEEF01F0E1EF01F0D880A7
:1003A200800E08640030000E002201220222D8A032
:1003B200E1EF01F0023201320032034AEAEF01F0CA
:1003C2000AAE029E000EF0EF01F0010E8BDEF0EF9E
:1003D20001F0020E8EDEF0EF01F0040E34DE1200A8
:0C03E20025903FC043F040DE2580120053
:1003EE000900F5CFE6FF0006FBE10106F9E1120078
:1003FE00969096949398939A939C939E84908494BB
:10040E00819E819C819A819802DE01DE00DE818AC6
:10041E00818884800CDE8490FADD848008DE8490EE
:10042E00F6DD848004DE8490F2DD81988480FFDD29
:10043E008490EDDD8480FBDD8490819A818E8480B2
:10044E00F6DD8490E4DD819E81888480F0DD8490E9
:10045E0081988480ECDD8490DADD8480E8DD849000
:10046E0081888480E4DD8490D2DD81988480DFDD14
:10047E008490818E818C818A81888480D8DD84905D
:06048E00C6DD258012000E
:100494000FD0800E316E19D0C00E316E16D0940E6E
:1004A400316E13D0D40E316E10D0800E316E0DD05B
:1004B4003150010AEEE03150020AEEE03150030AF5
:1004C400EEE03150040AEEE0F0D73204006E315011
:1004D400002600C031F000C043F0C5DD2590356A28
:1004E40035503324E96E000E3420EA6EEE520BE0F0
:1004F40035503324E96E000E3420EA6EEECF3FF01F
:0A0504006EDF352AEDD725801200C6
:10050E00C26AC00EC212C18CC18E31C000F000365C
:10051E00009000360090003600900050C212C2804B
:10052E00B4DEC284C2A401D0FDD7C4CF01F0006AEC
:0C053E00C3500012000E0112C290120007
:10054A000050086E0150006E016A026A036A0B6A63
:10055A000C6A960E036E0A6A00C001F008C000F029
:08056A00086A026ACEDD1200EE
:100572003D6A3E6A31C039F032C03AF033C03BF0D6
:1005820034C03CF03C50FF0A08E13B50FF0A05E151
:100592003A50FF0A02E13950FF0A0CE135C03FF040
:1005A20036C040F0190E416E000E426EE7DD030EBA
:1005B200006EE5D1010E376E3BAE0ED0800E3B18B9
:1005C200006E00C03BF0372A35C0E1FF36C0E2FFC3
:1005D2002D0EE66E354A362A000E006E3C1808E1F2
:1005E20000503B1805E100503A1802E13950000A68
:1005F2000BE135C03FF036C040F01D0E416E000EDB
:10060200426EBCDD006ABBD13C50FF0A08E13B50A0
:10061200000A05E13A50000A02E13950000A0CE1F1
:1006220035C03FF036C040F0150E416E000E426EEE
:10063200A5DD37C000F0A3D1000E046E000E056EDA
:10064200000E066E7F0E076E39C000F03AC001F050
:100652003BC002F03CC003F0B7DD010ED8B0000E83
:10066200006E00521BE039C000F03AC001F03BC0FE
:1006720002F03CC003F0000E046E000E056E200E68
:10068200066E820E076E1CDE00C039F001C03AF021
:1006920002C03BF003C03CF03E06CED7000E046E13
:1006A200000E056E200E066E820E076E39C000F037
:1006B2003AC001F03BC002F03CC003F085DD000E01
:1006C200D8B0010E006E00521BE039C000F03AC0F3
:1006D20001F03BC002F03CC003F0CD0E046ECC0E24
:1006E200056E4C0E066E7B0E076EEADD00C039F019
:1006F20001C03AF002C03BF003C03CF03E2ACED724
:10070200FF0E3914086EFF0E3A14096E7F0E3B1469
:100712000A6E000E3C140B6E08C004F009C005F00E
:100722000AC006F00BC007F0043604900536063600
:100732000736000E3914006E000E3A14016E000ED8
:100742003B14026EFF0E3C14036E00C039F001C070
:100752003AF002C03BF003C03CF004503910006E86
:1007620005503A10016E06503B10026E07503C10C5
:10077200036E00C039F001C03AF002C03BF003C082
:100782003CF07F0E3C5C006E00C038F0010E3C6E07
:1007920000C004F039C000F03AC001F03BC002F0E2
:1007A2003CC003F0045007E00036009001360236E8
:1007B2000336FF0FF8D700C039F001C03AF002C08B
:1007C2003BF003C03CF035C0E1FF36C0E2FF3C50D5
:1007D200300FE66E354A362A800E3E18006E800EC5
:1007E200010A005C08E3800E060A006E800E3E18C5
:1007F200005C01E30AD035C0E1FF36C0E2FF2E0EF5
:10080200E66E354A362A010E3D6E060E386E3850B7
:10081200000A54E03C6A39C000F03AC001F03BC023
:1008220002F03CC003F00036009001360236033677
:1008320000360090013602360336395000263A500F
:1008420001223B5002223C50032200C039F001C079
:100852003AF002C03BF003C03CF039C000F03AC0AD
:1008620001F03BC002F03CC003F0003600900136BC
:100872000236033600C039F001C03AF002C03BF044
:1008820003C03CF035C0E1FF36C0E2FF3C50300F00
:10089200E66E354A362A3D50000A0EE13E063E50CB
:1008A200000A0AE135C0E1FF36C0E2FF2E0EE66E15
:1008B200354A362A010E3D6E3806A9D7FF0E352479
:1008C200E96EFF0E3620EA6EEE50300A05E1010EA7
:1008D200355E000E365AF2D7FF0E3524E96EFF0E52
:1008E2003620EA6EEE502E0A04E1010E355E000E4D
:1008F200365A3E50000A3DE035C0E1FF36C0E2FF05
:10090200650EE66E354A362A800E3E18006E800E5F
:10091200000A005C0BE235C0E1FF36C0E2FF2D0E9B
:10092200E66E354A362A3E5000083E6E3EC038F02A
:100932003E5009080EE20A0E046E38C000F0B1DC27
:1009420035C0E1FF36C0E2FF0050300FE66E354A97
:10095200362A0A0E046E38C000F0A3DC08C000F08C
:1009620035C0E1FF36C0E2FF0050300FE66E354A77
:10097200362A35C0E1FF36C0E2FFE66A006A12009D
:100982001EEC05F0140EC16EC26A946A956A936AEF
:10099200966A846A806AF26A31DD0C0E436E35EC27
:1009A20000F0010E436E35EC00F0010E316E010EC7
:1009B200326E1F0E336E000E346E6BDD020E316E20
:1009C200326A2A0E336E000E346E63DD316A9EDDAA
:1009D200BBDD00C026F001C027F002C028F003C032
:1009E20029F000C031F001C032F002C033F003C080
:1009F20034F02A0E356E000E366EBADD020E316EFE
:100A0200326A2A0E336E000E346E43DD0D0E0B6E0B
:100A1200AF0E0C6EB60E0D6E0D2EFED70C2EFCD741
:0A0A22000B2EFAD70000D2D7FFD741
:100A3C0010EE15F0100E006E010E016E2C0EF66EFF
:0E0A4C000A0EF76E000EF86EF7EC01F01200C5
:040A2C00494E4600E9
:040A30004E614E00C5
:020A3400300090
:060A36004C4D2033350099
:020000040030CA
:0D000100220F0EFF0181FF0FC00FE00F4026
:00000001FF
