:1000000013EF01F00000000000EF00F0000000001E
:0A0010000000000000000000F3D71C
:10001C000134083609360450085E0550D8A0053C5A
:10002C00095E003601360F0E0C6E013408360936A7
:10003C00045000A006D0085E0550D8A0053C095E0F
:10004C0005D008260550D8B0053C092600360136E7
:10005C000C2EEBD700B006D0045008260550D8B0B3
:08006C00053C0926000012000A
:100074002A50000A03E115C000F036D02A50010AC4
:1000840003E116C000F030D02A50020A03E117C081
:1000940000F02AD02A50030A03E118C000F024D04B
:1000A4002A50040A03E119C000F01ED02A50050AA0
:1000B40003E11AC000F018D02A50060A03E11BC05D
:1000C40000F012D02A50070A03E11CC000F00CD043
:1000D4002A50080A03E11DC000F006D02A50090A7C
:0A00E40003E11EC000F000D012007E
:1000EE002950010A09E1808A84948492849028C060
:1000FE002AF0B9DF00C081FF2950020A09E1809A77
:10010E0084848492849028C02AF0ADDF00C081FFE1
:10011E002950030A09E1809A84948482849028C02D
:10012E002AF0A1DF00C081FF2950040A09E1809A5C
:10013E0084948492848028C02AF095DF00C081FFC9
:02014E0012009D
:100150000900F5CFE6FF0006FBE10106F9E1120018
:100160000450000A08E10550000A05E1FF0E006E88
:100170007F0E016E57D00D6A096A086A015000109F
:10018000D8B4000C015005180A6E0ABE0D1E0B6A89
:1001900005AE05D0041E051E042AD8B4052A01AEFA
:1001A00005D0001E011E002AD8B4012A01500510F6
:1001B0000A6E0ABE10D032DF0BB020D00DAE000C9C
:1001C000001E011E002AD8B4012A081E091E082A92
:1001D000D8B4092A000C05AE0DD001BE07D00150DD
:1001E000096E0050086E016A006AE8D7016A006A69
:1001F000002A000C011E001E0B2ADDD7082AD8B4E5
:10020000092A0450085CD8A4D9D70550095CD8A4A1
:10021000D5D7096A086A002AD8B4012A01AECED718
:060220000000FF0C1200BB
:10022600D70E156E500E166EE50E176E750E186EFD
:10023600720E196E370E1A6EB70E1B6E510E1C6EAD
:10024600F70E1D6E770E1E6E1F6A060EC16E936A3E
:10025600926A966AFF0E946E958E806AFF0E806E85
:10026600FF0E846E1F6A030E1F5C21E2816A080E70
:100276000B6E9D0E0C6E050E0D6E0D2EFED70C2E02
:10028600FCD70B2EFAD700000000FF0E816E080E79
:100296000B6E9D0E0C6E050E0D6E0D2EFED70C2EE2
:1002A600FCD70B2EFAD7000000001F2ADCD7206AE5
:1002B600216A226A236A82B810D02250000A0DE110
:1002C600010E226E204A212A2150270A02E1100E31
:1002D600201802E1206A216A24D082A805D0225083
:1002E600010A02E1226A1DD082BA15D02350000A03
:1002F60012E1010E236E010E205E000E215A800EC1
:100306002118006E800E005C02E1000E205C02E205
:10031600206A216A06D082AA04D02350010AD8B4E2
:10032600236AE80E046E030E056E20C000F021C09D
:1003360001F013DF0A0E046E000E056E0EDF08C014
:1003460000F009C001F000C026F0640E046E000E35
:10035600056E20C000F021C001F0FFDE0A0E046E1B
:10036600000E056EFADE08C000F009C001F000C0FC
:1003760027F00A0E046E000E056E20C000F021C0A4
:1003860001F0EBDE0A0E046E000E056EE6DE08C016
:1003960000F009C001F000C024F00A0E046E000E41
:1003A600056E20C000F021C001F0D7DE08C000F0C5
:1003B60009C001F000C025F000C028F0010E296E2A
:1003C60093DE070E0C6E7D0E0D6E0D2EFED70C2ED7
:1003D600FCD724C028F0020E296E86DE070E0C6EAE
:1003E6007D0E0D6E0D2EFED70C2EFCD727C028F0E5
:1003F600030E296E79DE070E0C6E7D0E0D6E0D2E28
:10040600FED70C2EFCD726C028F0040E296E6CDE13
:10041600070E0C6E7D0E0D6E0D2EFED70C2EFCD724
:040426004AD7FFD7DB
:020000040030CA
:0D000100220F0EFF0181FF0FC00FE00F4026
:00000001FF
