:1000000075EF00F00000000000EF00F000000000BD
:0A0010000000000000000000F3D71C
:0E001C00ACB202D00000FCD748C0ADFF12000D
:0E002A000A0E486EF6DF0D0E486EF3DF120070
:0A003800000E9EBA010E006E1200C9
:10004200AECF01F0ABA202D0AB98AB8801C000F0FA
:0200520012009A
:100054000900F5CFE6FF0006FBE10106F9E1120015
:100064001C0E386E000E396E480E3A6E000E3B6E52
:10007400420E346E000E356E000E366E000E376E74
:10008400380E406E000E416E000E426E000E436E3E
:10009400FF0E3C6EFF0E3D6E000E3E6E000E3F6E78
:1000A400AC8A900EAB6E948E949C9EAA03D0AECF75
:0600B40000F0FBD7120072
:1000BA00476A44C0E9FF45C0EAFFEECF46F0465022
:1000CA00000A0DE046C048F0A4DF472A47504424FE
:1000DA00E96E000E4520EA6EEECF46F0F0D7120028
:1000EA00C0EC00F0810EAF6EAC84B7DF030E0B6E6E
:1000FA008A0E0C6E550E0D6E0D2EFED70C2EFCD7E9
:10010A000B2EFAD700000000150E446E000E456E45
:10011A00CFDF86DF8CDF005206E08EDF00C033F0CF
:10012A0000C048F076DF82B80AD0270E446E000E6F
:10013A00456EBEDF82B801D0FDD772DF0BD082BA1E
:10014A0009D01B0E446E000E456EB2DF82BA01D092
:08015A00FDD766DFDFD7FFD7F8
:1001800010EE15F01E0E006E010E016E620EF66E80
:0E019000010EF76E000EF86E2AEC00F0120061
:0601620053746172740089
:0C016800706F7274632E42353D3D300014
:0C017400706F7274632E42343D3D300009
:020000040030CA
:0D000100220F0EFF0181FF0FC00FE00F4026
:00000001FF
