:1000000025EF00F00000000000EF00F0000000000D
:0A0010000000000000000000F3D71C
:10001C000900F5CFE6FF0006FBE10106F9E112004D
:10002C00030E0B6E8A0E0C6E550E0D6E0D2EFED73A
:0E003C000C2EFCD70B2EFAD70000000012008D
:10004A00926A936A946A956A966A896A8A6A8B6AD4
:10005A008C6A8D6A156A080E155C17E215C001F0E4
:10006A00010E006E015004E000360090FF0FFBD72E
:10007A000050891200508A1200508B1200508C12C4
:10008A0000508D12CEDF152AE6D7156A080E155CC8
:10009A0018E215C001F0010E006E015004E00036AE
:1000AA000090FF0FFBD7001E0050891600508A16D9
:1000BA0000508B1600508C1600508D16B2DF152A90
:0600CA00E5D7C8D7FFD7FF
:020000040030CA
:0D000100220F0EFF0181FF0FC00FE00F4026
:00000001FF
