:100000002BEF00F00000000000EF00F00000000007
:0A0010000000000000000000F3D71C
:0C001C008C6A8A6A8B6A896A8D6A1200FD
:100028000900F5CFE6FF0006FBE10106F9E1120041
:10003800040E0B6ECF0E0C6E010E0D6E0D2EFED73C
:0E0048000C2EFCD70B2EFAD700000000120081
:10005600956A946A936A926A966A8C6A8A6A8B6AC5
:10006600896A8D6A156A080E155C13E215C001F0DF
:10007600010E006E015004E000360090FF0FFBD722
:1000860000C08AFF00C08CFF00C08BFF152AD1DF9D
:10009600EAD7156A080E155C13E215C001F0800E4A
:1000A600006E015004E00032009EFF0FFBD700C037
:1000B6008AFF00C08CFF00C08BFFBBDF152AEAD782
:1000C600156A080E155C12E2550E8A6E550E8C6E78
:1000D600550E8B6EAEDFADDFAA0E8A6EAA0E8C6E43
:1000E600AA0E8B6EA6DFA5DF152AEBD794DF156A5D
:1000F600080E155C13E29DDF15C001F0010E006EBF
:10010600015004E000360090FF0FFBD700508A1222
:1001160000508C1200508B12152AEAD7156A080E69
:10012600155C13E286DF15C001F0800E006E0150EB
:1001360004E00032009EFF0FFBD700508A160050E5
:0E0146008C1600508B16152AEAD78CD7FFD7DF
:020000040030CA
:0D000100220F0EFF0181FF0FC00FE00F4026
:00000001FF
