:100000006EEF00F00000000000EF00F000000000C4
:0A0010000000000000000000F3D71C
:0E001C00ACB202D00000FCD73AC0ADFF12001B
:0A002A00000E9EBA010E006E1200D7
:10003400AECF01F0ABA202D0AB98AB8801C000F008
:020044001200A8
:10004600396A36C0E9FF37C0EAFFEECF38F03850DC
:10005600000A0DE038C03AF0DEDF392A395036247E
:10006600E96E000E3720EA6EEECF38F0F0D71200B8
:100076001C0E2A6E000E2B6E3A0E2C6E000E2D6E86
:10008600340E2E6E000E2F6E000E306E000E316E88
:100096002A0E326E000E336E000E346E000E356E72
:1000A600FF0E256EFF0E266E000E276E000E286EC2
:1000B600AC8A900EAB6E948E949C9EAA03D0AECF63
:0600C60000F0FBD7120060
:1000CC000900F5CFE6FF0006FBE10106F9E112009D
:1000DC00ABEC00F0810EAF6EAC84C7DF030E0B6E81
:1000EC008A0E0C6E550E0D6E0D2EFED70C2EFCD7F7
:1000FC000B2EFAD700000000150E366E000E376E70
:10010C009CDF0A0E3A6E84DF0D0E3A6E81DF1B0EF9
:10011C00366E000E376E91DF0A0E3A6E79DF0D0ED9
:10012C003A6E76DF7CDF005206E07EDF00C029F0FD
:0A013C0000C03AF06DDFF6D7FFD7E0
:1001560010EE15F0100E006E010E016E460EF66ED4
:0E016600010EF76E000EF86E66EC00F012004F
:06014600537461727400A5
:0A014C005479706520546578740042
:020000040030CA
:0D000100220F0EFF0181FF0FC00FE00F4026
:00000001FF
