:10000000F8EF00F00000000000EF00F0000000003A
:0A0010000000000000000000F3D71C
:0C001C00000000000000000000001200C6
:10002800240E0C6EB50E0D6E0D2EFED70C2EFCD7C1
:06003800000000001200B0
:0A003E00530E0D6E0D2EFED71200BA
:100048003EBE02D0819E01D0818E3EBC02D0819CF2
:1000580001D0818C3EBA02D0819A01D0818A3EB803
:1000680002D0819801D0818837B002D0848401D031
:1000780084948480CFDF84903EB602D0819E01D0E4
:10008800818E3EB402D0819C01D0818C3EB202D0D8
:10009800819A01D0818A3EB002D0819801D08188AE
:1000A80037B002D0848401D084948480B3DF8490F4
:0C00B80037A002D0B5DF01D0BEDF12007F
:0C00C40037903DC03EF0BEDF37801200D8
:1000D0000900F5CFE6FF0006FBE10106F9E1120099
:1000E000969096949398939A939C939E84908494DC
:1000F000819E819C819A819897DF96DF95DF818A26
:10010000818884808BDF84908FDF848087DF849078
:100110008BDF848083DF849087DF819884807EDF1B
:10012000849082DF84807ADF8490819A818E8480BB
:1001300075DF849079DF819E818884806FDF849071
:10014000819884806BDF84906FDF848067DF849088
:100150008188848063DF849067DF819884805EDF9C
:100160008490818E818C818A8188848057DF8490FD
:060170005BDF3780120086
:100176000FD0800E386E19D0C00E386E16D0940E81
:10018600386E13D0D40E386E10D0800E386E0DD067
:100196003850010AEEE03850020AEEE03850030A01
:1001A600EEE03850040AEEE0F0D73904006E38501D
:1001B600002600C038F000C03EF043DF37903C6AAE
:1001C6003C503A24E96E000E3B20EA6EEE520BE0FC
:1001D6003C503A24E96E000E3B20EA6EEECF3DF02D
:0A01E6006EDF3C2AEDD737801200CF
:1001F00046EC01F0060EC16EFF0E926E966A849276
:10020000FF0E946E6DDF020E386E010E396E200EF9
:100210003A6E000E3B6EAFDF0C0E3E6E15DF1A0E0F
:100220000B6E5E0E0C6E6E0E0D6E0D2EFED70C2E2E
:10023000FCD70B2EFAD7000082B80AD0020E386E17
:10024000010E396E2C0E3A6E000E3B6E94DF0BD011
:1002500082A809D0010E386E010E396E150E3A6E65
:0A026000000E3B6E88DFE8D7FFD7E1
:10028C0010EE15F0220E006E010E016E6A0EF66E67
:0E029C00020EF76E000EF86E68EC00F0120015
:0B026A00706F7274632E62343D31002F
:0C02750068656C6C6F20776F726C640021
:0B028100706F7274632E62343D300019
:020000040030CA
:0D000100220F0EFF0181FF0FC00FE00F4026
:00000001FF
